:020000040800F2
:10000000800900207D010008271B0008251B00082F
:1000100000000000000000000000000000000000E0
:100020000000000000000000000000002B1B000882
:100030000000000000000000291B0008F521000856
:100040008F0100088F0100088F0100088F01000850
:100050008F0100088F0100088F0100088F01000840
:100060008F0100088F0100088F0100088F01000830
:100070008F0100088F0100088F0100088F01000820
:100080008F0100088F0100088F0100088F01000810
:100090008F0100088F0100088F0100088F01000800
:1000A0008F0100088F0100088F0100088F010008F0
:1000B0008F0100088F0100088F0100088F010008E0
:1000C00000F002F800F04AF812A030C808382418EE
:1000D0002D18AC4201D100F041F80FCCA246AB463E
:1000E0000CA730CF2D1B083F3F197C427F1E544484
:1000F0002D090426F441641EAC4201D300F02EF811
:100100000126334200D0FB1A3343984754465D46DC
:10011000DFE70000BC300000DC300000704700006A
:100120000023002400250026103A01D378C1FBD813
:10013000520700D330C100D50B60704710B5752948
:1001400002D100F0A5F810BD002010BD1FB5009829
:10015000019900F06AFA1FBD10B510BD00F047FB11
:100160001146FFF7F3FF02F0E7FA00F05FFB03B47C
:10017000FFF7F2FF03BC00F08FFB00000748804749
:1001800007480047FEE7FEE7FEE7FEE7FEE7FEE77B
:1001900004480549054A064B70470000FD21000848
:1001A000C100000880030020800900208005002095
:1001B0008005002070B5064600F01AFA0568304642
:1001C0000B30C408E400B44201D8002070BD686858
:1001D0002A46002818D00168A14211D30B462146B7
:1001E00008318B4208D3436801194B6003681B1B1D
:1001F0000B605160046001E041685160001D70BDFA
:10020000024640680028E6D12146284600F0F8F969
:100210000028DCD170BD70B50446051F00F0E8F978
:100220000068002C1AD0446801E020466468002C65
:1002300001D0AC42F9D301680A18AA4204D12A6855
:1002400005468918016000E0456028684119A1420F
:1002500005D16168696021684018286070BD6C60D4
:1002600070BD00000FB41CB5084B06AA7B4469465C
:100270000090059800F069FA04460020694600F0F5
:1002800077FA20461CBC08BC04B0184701050000E2
:10029000F7B5002575291068009914A611D0C0463D
:1002A000C046002802DA404211A608E00099096819
:1002B0008A0701D50FA602E0490704D50EA601253D
:1002C00001E0C046C046009F0024243704E000F04F
:1002D00054FA30313955641C0028F8D12B46324687
:1002E0002146009800F0D4F9FEBD00000000000097
:1002F0002D0000002B00000020000000F8B50F4684
:100300000546002028622846E9688847002852D020
:10031000252802D06A68A96849E0E96828460026CD
:1003200088476C2804460AD0682C08D04C2C37D05B
:100330006A2C33D0742C33D07A2C31D015E0E96894
:10034000064628468847B042044608D16C2E25D080
:100350000126B6022846E9688847044605E06C2E67
:1003600002D0FF26013600E04026002C23D0204694
:100370004138192803D80120C002064320343A46E8
:1003800028462E602146FFF7D9FE00280CD0012810
:1003900008D0FF1DFF08FF000837B4E78026D9E723
:1003A0000026D7E73F1DAEE76A682046A968904758
:1003B000286A401CA6E7286AF8BD01E004C0091FAE
:1003C0000429FBD28B0701D50280801CC90700D00D
:1003D0000270704700290BD0C30702D00270401C86
:1003E000491E022904D3830702D50280801C891E7E
:1003F000E3E70022EEE70022DFE77047704770472F
:10040000F0B5FF252D04C609C209FF2704462E407A
:100410000137CB093E4348402A402B400746002A7B
:100420006BD0002B69D0AA4267D0AB4265D00028C0
:1004300000DA32460125ED0529432C43090220024A
:10044000090AD21A4B0C7F24E31A434C000A7C445D
:10045000E35C7D242404121914145B00A218884262
:1004600001D3521C00E0400049420C465C43241179
:100470005C43DB016415E318040A5C43C502200DEC
:100480000C4644436419250A5D432303EC0C0D46D6
:10049000654300030019EB184C42A34201D35B18DB
:1004A000401CD4052018002B07D05B00C91804D3CA
:1004B000401C002901D1400840003F2189048A42A4
:1004C00009D3002A08DC1106090F04D003214907CB
:1004D0004018C00FC007F0BD012241001206891864
:1004E0007F2252069142F6D205214907C84201D522
:1004F0009010F0BDFF20C005F0BD002F00DA32469D
:100500001648AA4207D2AB4205D21902090E17D0EB
:10051000F80FC007F0BDFF2563002D06AB42F9D8E8
:100520004900A942F6D8AB4201D1A942F2D0A94272
:1005300001D1002101E061004908D0050843F0BD68
:100540001102090EFBD0FF200243D005F0BD0A4680
:100550000146104654E700003E2B00000000C07F1B
:100560000102C21504D00123DB071943002A0ADB6C
:100570009E239A1A02D40846D0407047FF224100B9
:100580001206914201D900207047C017C04370473E
:100590001F22030C02D10F2200041CD0030E01D134
:1005A0000002083A030F01D10001121F830F01D18D
:1005B0008000921E002801DB4000521ED205511817
:1005C000021251181922904004D3491C002801D16D
:1005D0004908490008467047C10FC90700D040428A
:1005E000012292071143D3E701218907D0E70000D8
:1005F00000487047500100207047704770477047AF
:1006000038B504460A4600206946C046C046002860
:1006100005D002462046009900F0C8F8012038BDF8
:1006200010B5012000F0DCF810BDF8B5C046C0469A
:10063000054600200C460C20C0460646A819A042DC
:100640000DD9324669460020C046C046070001D198
:1006500000F0C6F80098A04200D00546C419FFF784
:10066000C7FFF61D07460560F008C000461928467A
:1006700000F008F8B44204D031463868A21B00F0FC
:1006800095F8F8BD00210160416070470C2070476B
:10069000FFB504460D4681B02430009021688806DD
:1006A00004D51022E0699143216000E00120A842B6
:1006B00001DD471B00E000270498A1697A19101892
:1006C000081AA0612078C00602D42046C046C04661
:1006D000002608E003986268A168805D9047206A60
:1006E000401C761C206204988642F3DB2078C0060A
:1006F0000AD52046C046C04606E06268A1683020A0
:100700009047206A401C206238467F1E0028F4DC97
:1007100007E000986268A168405D9047206A401C2D
:10072000206228466D1E0028F3DC2046C046C046E5
:100730002078000602D5022005B0F0BD0120FBE7BD
:1007400001694A1C02610878704700B58FB00291B8
:1007500000210591054901937944039111460490C4
:100760006846FFF7CBFD0FB000BD0000E5FFFFFFBF
:100770000A681070521C0A60704701468008081A07
:1007800002091018020A1018020C1018C008820082
:1007900012185200891A01E0401C0A390A29FBD2BA
:1007A00070470000004870474801002010B503461C
:1007B000406801E003464068002801D08842F9D330
:1007C0001868C3188B4206D0CB1CD808C000001D87
:1007D000411A521A0146081D0A60FFF71CFD10BDA0
:1007E00010B500F031F800F029F810BD70477546DB
:1007F000FFF7D8FFAE46050069465346C008C00063
:10080000854618B020B5FFF7C3FC60BCB64600268D
:100810000027C0C5C0C5C0C5C0C5C0C5C0C5C0C50E
:10082000C0C5403D490849008D46704710B5044693
:10083000C046C0462046FFF79AFC10BD10B5002800
:1008400001D000F029F810BD10B5012805D0002115
:1008500003A000F027F8012010BD09A1F8E700006F
:1008600053494752544D454D3A204F7574206F6699
:100870002068656170206D656D6F72790000000001
:100880003A2048656170206D656D6F727920636FE5
:10089000727275707465640001491820ABBEFEE782
:1008A0002600020070B505460C460A2000E06D1CCB
:1008B00000F012F8002D06D028780028F7D102E0C9
:1008C000641C00F009F8002C02D020780028F7D131
:1008D0000A2000F001F870BD08B5694608700320D1
:1008E000ABBE08BD70B58D180478401CA207920FEE
:1008F00001D10278401C231106D10378401C03E08B
:100900000678401C0E70491C521EF9D1002B15D0E0
:1009100002780C2634408A1A401C0C2C03D0A40107
:10092000121B9B1C08E004782402121B401CF8E7F1
:1009300014780C70491C521C5B1EF9D5A942D3D304
:10094000002070BD70B582B0054600240194006897
:10095000816803220A40012A05D10168C9070ED126
:10096000C16809040BD48168214A11420AD0A86BDE
:1009700010210143A963E86B01242043E86320466A
:1009800002B070BD816801220A4382601948006884
:10099000194902F0FBF801900198002817D001983E
:1009A000401E01900198002811D00198401E01902E
:1009B000019800280BD00198401E01900198002852
:1009C00005D00198401E019001980028E7D100F061
:1009D0000FFD064628680068C007D0D100F008FD6A
:1009E000811B28680329F6D30168C907F3D1BEE744
:1009F00017000080E000002040420F00F0B581B0F9
:100A000004462A4E306901284CDB0027284D07E0B8
:100A100028A000F067F820357F1C3069874241DA52
:100A200020682968421A152A02D3081A0528EFD827
:100A300060686968421A152A02D3081A0528E7D89F
:100A4000A068A968421A152A02D3081A0528DFD817
:100A5000E068E968421A152A02D3081A0528D7D88F
:100A600020692969421A152A02D3081A0528CFD805
:100A700060696969421A152A02D3081A0528C7D87D
:100A8000A069A969421A152A02D3081A0528BFD8F5
:100A9000E169EA698B1A0120152B04D3511A062942
:100AA000B6D200E0002001B0F0BDC046A801002091
:100AB000F0010020417070726F7847657374757231
:100AC000653A2077726F6E67206368616E6E656C41
:100AD0002076616C75652064657465637465642156
:100AE00000000000F0B582B0714A1178002904D0EE
:100AF000BC215378002B04D104E0BD215378002B96
:100B000000D0491E9378002B1ED1D378002B1FD123
:100B10001379002B20D15379002B21D19379002B0D
:100B200022D1D279002A23D10378624A002B24D023
:100B3000002403195D78002D21D09B78A41C002B84
:100B4000F7D1651E23461CE0491ED378002BDFD069
:100B5000491E1379002BDED0491E5379002BDDD0BE
:100B6000491E9379002BDCD0491ED279002ADBD0B4
:100B7000491E03784F4A002BDAD1002341E0631C61
:100B800025466E1C032734463C400094032D0191FA
:100B900048D20025009E002E2ED0445D1168090623
:100BA00008D41168090605D41168090602D4116831
:100BB0000906F3D59481012E1ED0281844781168B7
:100BC000090608D41168090605D41168090602D47B
:100BD00011680906F3D59481022E0DD08078116832
:100BE000090608D41168090605D41168090602D45B
:100BF00011680906F3D59081019902E020209081C7
:100C00005B1C8B420CDA10680006F7D410680006F3
:100C1000F4D410680006F1D410680006F3D5EDE7AF
:100C200002B0F0BDBE43002503E094812D1DB54206
:100C3000B0D0445D1168090608D41168090605D4CE
:100C40001168090602D411680906F3D594810121BF
:100C50002943445C1168090608D41168090605D4C3
:100C60001168090602D411680906F3D5948102219E
:100C70002943445C1168090608D41168090605D4A3
:100C80001168090602D411680906F3D59481294632
:100C90003943445C11680906C7D411680906C4D4F5
:100CA00011680906C1D411680906F3D5BDE7C0462D
:100CB000700300201C480040F0B583B0002302936D
:100CC0003422825C012A02D1022003B0F0BD0193DC
:100CD000074634370668B268520716D400970D6885
:100CE0004B6801242746AF403E4A934214D1B06A74
:100CF000B843B062284610380228019E3046009F53
:100D00005BD8112D1AD03C4819E0816B20220A4390
:100D100082630120019E50E0B26A3A43B262C06A27
:100D2000421E072A4CD2284610380228019E30461F
:100D3000009F42D8112D0DD020060CE02D48102D1B
:100D400000D12E4828490A6802400A6030463E70A9
:100D500003B0F0BDA005102D00D1E00522490A68BE
:100D600002430A60102D304627D1204800682049F0
:100D700001F00CFF0A2141430291029800283046FD
:100D80001BD00298401E02900298002811D00298B1
:100D9000401E0290029800280BD00298401E02903C
:100DA0000298002805D00298401E02900298002860
:100DB000E7D130463E7003B0F0BD3E7003B0F0BDE9
:100DC00022079042AFD072690720024089689142A1
:100DD000A9D07269824372610140706908437061F1
:100DE000A1E7C0460110000008270140E0000020F4
:100DF00040420F00FFFFBFFFFFFFFFFEFFFF7FFF2F
:100E00000068006C70470000F0B581B00125002833
:100E100062D0044606462436806B002803D0A06BBF
:100E2000C00609D554E000203074E063204600F08D
:100E300093F8A06BC0064BD420688168490747D45B
:100E400081214900A26B8A43911CA163826803211E
:100E50000A40012A05D10268D2070ED1C2681204E5
:100E60000BD4C26818239A43A3681343C36089074D
:100E700002698A43616811430161C168344A0A40CA
:100E8000C260A16A491E4A1E91410903227E920353
:100E9000637EDB031343A27E55031D43E36827698A
:100EA0002B430B43B91E4D424D41AD001D433178DC
:100EB00049002943E37E012B14D1002A0FD0A26BF5
:100EC00020231343A363E26B01231343E36309E08D
:100ED000A06B10210143A163284601B0F0BD01229F
:100EE00012041143E269FF23C2339A4202D0236AFB
:100EF00019431143C2680A43C260E26A531E072BBA
:100F000021D243690725AB4343612A404369134318
:100F10004361C0680F4A02408A4207D10025E56359
:100F2000A06B0121014302208143D4E7A06B102173
:100F3000014302208143A163E06B01252843E06364
:100F4000284601B0F0BD01231B079A42D9D0E0E743
:100F50001902FEFFE7FF3F8370B586B000250595B7
:100F6000049500682149884201D006B070BD012176
:100F70004A021F4843681343436043681340009389
:100F8000009ACA0403681343036003681340009384
:100F9000009A4A04036813430360036813400093F4
:100FA000009A890402680A430260006808400090C1
:100FB00000980395032602961F2001900D4801AC6E
:100FC000214600F04FF903950296802001900920F8
:100FD000C006214600F046F90395029601960648A0
:100FE000214600F03FF906B070BDC0460024014024
:100FF000141002400008004800040048F0B581B019
:101000000D4604464069082801D1082704E02068FD
:10101000C068C00764D10C2700F0EAF906462168D1
:10102000086838421CD001204202A36B1343A3631B
:10103000CA681205920F66D1A27E002A63D10A689F
:10104000120760D58A68520754D4224638324B685A
:101050000C25AB434B60FF2502351368AB4350E0D2
:10106000681C39D0002D1BD10868384221D008688F
:101070003842D8D1086838421BD008683842D2D1EB
:101080000868384215D008683842CCD10868384220
:101090000FD008683842E7D0C5E708683842C2D1A7
:1010A00000F0A6F9801B2168A842F6D908683842EA
:1010B000F3D1342000212154A06B04210143A1630A
:1010C000032001B0F0BD08683842ACD1086838424E
:1010D000A9D108683842A6D108683842F3D0A2E7FF
:1010E000342000212154A06B20210143A163012061
:1010F00001B0F0BDA26B20231343A36322463C3210
:10110000E36B03431360227E0020002A01D001B06C
:10111000F0BD0C220A6001B0F0BD000070B50446BD
:1011200000688068022540070FD43420205C012825
:101130000BD02646343601253570607E012806D056
:101140002046FFF7FFFB002801D0284670BDA06BAA
:1011500008490140012000020818A0630025E5634A
:1011600020681C2101603570816804220A43826076
:10117000284670BDFEF0FFFFF0B581B00446342074
:10118000205C012802D1022001B0F0BD2646343691
:101190000127377020688168490711D482680321CC
:1011A0000A40012A05D10268D20724D1C26812047C
:1011B00021D4FF200230A16B8143383400203BE072
:1011C0008168490706D58168890703D481681022A0
:1011D0000A43826000F00CF90546206881684907DF
:1011E000DCD500F005F9411B20680329F6D381689E
:1011F0004907F3D519E0826805231340012B14D168
:101200008268022313438360016000F0F1F8054611
:1012100020688068C007CCD000F0EAF8411B206845
:101220000329F6D38168C907F3D0A06B10210143CD
:10123000A163E16B3C3438460022327039432160AF
:1012400001B0F0BDB0B5044600F0D2F80546601C10
:1012500002D084480078041900F0CAF8401BA0426C
:10126000FAD3B0BDF0B589B001900A68002A00D168
:10127000B5E00D465B48019B834201D0052000E0AC
:1012800004201721C9065918890A9B05591800918D
:10129000042900D3009000231C461F4607950AE04E
:1012A000114331607F1C2A681046F8401B1DA41CA6
:1012B000002800D193E001260396BE403240F1D0D1
:1012C0000292069303200146A140C9436A6815466D
:1012D00005406B1E012B059213D804910199886873
:1012E000049B1840079BDB68A34003438B60D00638
:1012F000C00FB8404B68B3430E4604990343736074
:1013000006E0032D019E03D10546069B029A20E0CC
:10131000F0680840079B9B68A3400343F360022DDD
:10132000069B029A15D11C20184004910F21814080
:10133000FB089B00F3181D6A8D43079E31698140AD
:10134000294319620499069B7068019E0325059044
:101350000540A54030680840284330600598800368
:10136000800F079D9ED04A490868039D2843086066
:101370000868284008900C2018400F218140032362
:101380003D469D43089B194EAB598B4300998140C4
:101390001943A951079D144EB1686868C3020BD563
:1013A0001143B160F16883020BD49143F16071681D
:1013B00083030BD491430AE09143B160F168830247
:1013C000F3D51143F16071688303F3D51143069B94
:1013D00071603168C00300D562E7914361E709B0ED
:1013E000F0BDC04600100048000401400800014064
:1013F000054800687047C0461A48007802490A68E4
:10140000101808607047C0467803002080B58548F2
:10141000016810220A430260032000F005F800F082
:1014200023F8002080BDC04670B504467D20C00072
:101430000C4E317801F0AAFB01468248006801F0A9
:10144000A5FB00F055FB0125032C08D8002806D188
:101450000025E84321462A4600F01CF8746028461F
:1014600070BDC0465800002082B0094801680122C2
:10147000114301600168114001910199110742680F
:101480000A434260406808400090009802B07047EC
:1014900018100240002805D40322034693430A4A49
:1014A0009A1803E00C220240064BD2188007C00EA7
:1014B0008901C9B28140FF238340106898430843E3
:1014C0001060704714ED00E000E400E0F0B581B07A
:1014D000002846D00446534A1368012003408B423B
:1014E00008D213680126B3430B43136012683240DD
:1014F0008A4237D1009121688A074B4B10D54A07A1
:1015000006D5072212021B681343474A1360464B55
:101510001A68F0239A43A3681343434A1360424B6B
:10152000C90722D13F49086801263040009A9042FD
:1015300005D90868B04308600868C00712D1207850
:10154000400706D50720000219688143E068084378
:1015500018601A681007810F3548022912D2044614
:1015600050E00126304601B0F0BD616803290DD07E
:101570001A1F02290FD0012912D1126892030646C0
:10158000F0D511E0032926D12A4C3BE01A6B9203D7
:101590000646E7D508E0126892010646E2D503E068
:1015A000126892070646DDD518680326B043084343
:1015B0001860FFF71DFF07461C4D1B4B18680C21D8
:1015C0000140606880008142ACD0FFF711FFC01B72
:1015D000A842F2D9C6E70321CB031349896A0F2435
:1015E0000C401549095D94021A40240F134D2C5DDF
:1015F0009A4202D033049A4200E00E4801F0C6FA43
:101600004443094B18680006000F0D49085CC440AC
:101610000C4804600320FFF707FF0026304601B0A6
:10162000F0BDC046002002400410024088130000B4
:1016300000127A00006CDC0204300008F42F00086D
:10164000E42F0008E0000020F0B587B00446012038
:10165000002C00D145E204902078C007F94E059493
:101660000CD071680C200140042900D090E0306853
:10167000800303D56068002800D120E1207880072E
:1016800021D570680007800F0ED070680C210140D2
:10169000082900D09DE00320C003716801400120AB
:1016A000C003814200D094E030688007059C03D5D8
:1016B000E068012800D002E13068F8218843216900
:1016C000C90001433160059C2078000724D42078AC
:1016D000400737D42078C00600D4D3E0059840698D
:1016E000411D00D1C2E0012800D030E1706B04211F
:1016F00001437163706B012101437163FFF778FE51
:101700000546706B800700D5B4E0FFF771FE411B02
:1017100003200229F5D9E4E1706AE169002900D1CA
:1017200081E0012108437062FFF762FE0546706A9E
:101730008007CCD4FFF75CFE401B0228F7D90320BA
:1017400007B0F0BD012003900107F0690840029046
:1017500006D1F0690843F061F069084006900698E8
:101760000191E14F3868C0054AD4039804023868F3
:1017700020433860FFF73CFE0546386820423FD1E1
:10178000FFF736FE401B6428F7D9032007B0F0BDF1
:1017900071680140082908D10320C0037168014025
:1017A00001200004814200D161E761680120470403
:1017B000002900D117E1052900D12BE1012900D131
:1017C0002CE1010432688A43326081043068884326
:1017D00027E13068059CE168002936D001210843E3
:1017E0003060FFF705FE05463068800700D563E7E7
:1017F000FFF7FEFD401B0228F6D9032007B0F0BD1D
:1018000005988068002800D1B6E0052800D1C9E01D
:10181000012800D1CAE0306A039988433062306AF7
:1018200004218843C5E0012188437062FFF7E0FD91
:101830000546706A800700D449E7FFF7D9FD401BD1
:101840000228F6D9032007B0F0BD0121884330609B
:10185000FFF7CEFD05463068800700D433E7FFF779
:10186000C7FD411B03200229F5D93AE1706B042121
:1018700088437063706BF821884305998969C900B2
:10188000014371630598007880060BD571680C20C0
:1018900001400C2939D1706B800303D50598006A8B
:1018A00001280CD10598446A002C00D1E1E0706851
:1018B0000C210140082905D1012C00D0C4E0049876
:1018C00007B0F0BD012002063168049291433160F7
:1018D0004706FFF78DFD0546022C0BD1049C3068AE
:1018E000384200D1DEE0FFF783FD411B03200229CF
:1018F000F5D9F6E03068384200D1BAE0FFF778FD5C
:10190000411B03200229F5D9EBE071680140082949
:1019100005D10320C003716801408142BBD0706BC8
:101920000599096A002900D1A9E001210A041043A0
:1019300070634C04FFF75CFD0546706B2042B1D12B
:10194000FFF756FD411B03200229F6D9C9E0706B51
:10195000042101437163706B012188437063FFF7B9
:1019600047FD0546706B80078CD5FFF741FD411B95
:1019700003200229F6D9B4E0306A03998843306223
:10198000306A042188433062584CFFF731FD054628
:10199000306A80071DD5FFF72BFD411B0320A142B4
:1019A000F6D99EE0306A042101433162306A03991E
:1019B000084330624D4CFFF71BFD0546306A800737
:1019C00007D4FFF715FD401BA042F7D9032007B04D
:1019D000F0BD02980028059C00D07BE6F0690199D3
:1019E0008843F06176E6010432688A4332608004FD
:1019F000316881433160FFF7FBFC0546059C306888
:101A0000384200D13AE6FFF7F3FC411B032064297A
:101A1000F5D966E0810432680A4332600104306817
:101A200008433060FFF7E4FC05463068384200D0D8
:101A300024E6FFF7DDFC401B6428F6D9032007B03D
:101A4000F0BDC046001002400320C203706802408F
:101A5000F16A059CA36A9A42049D0DD10F221140A0
:101A6000236B994208D191040840E16A88422846D4
:101A700037D1002007B0F0BD284607B0F0BD0121E6
:101A80000A04904370634C04FFF7B2FC0546706B88
:101A9000204200D106E7FFF7ABFC411B03200229DF
:101AA000F5D91EE0F06A0F218843059A116B0143B6
:101AB000F1627B20C00371688143D06A0843916A58
:101AC00001437160306820433060FFF791FC0446A9
:101AD00030683842CDD1FFF78BFC011B032002296F
:101AE000F6D907B0F0BDC046007000408813000072
:101AF000401E010E01D0012070470749074A50607F
:101B0000074803680B40032189075918016000202A
:101B10009060072111607047FFFFFF0010E000E0B8
:101B200020ED00E0FEE7FEE770477047F0B583B0B8
:101B30004CA0FEF7D7FF6020FEF73CFB002862D0E8
:101B400004465048826A50492046FEF78BFB2C27FA
:101B50002754211800264E70451C60194949CA6A4D
:101B60004949FEF77FFB4019275421184E70451C48
:101B7000601944490A6B4449FEF774FB4019275425
:101B800021184E70451C60193E494A6B3E49FEF7CC
:101B900069FB4019275421184E70451C60193949BA
:101BA0008A6B3949FEF75EFB4019275421184E70A5
:101BB000451C60193349CA6B3349FEF753FB401982
:101BC000275421184E70451C60192E490A6C2E4965
:101BD000FEF748FB4019275420184670401C29493D
:101BE0004A6C2949FEF73EFB2046FEF77BFF204664
:101BF000FEF711FB234CA07800280ED025A0FEF79D
:101C000071FF03B0F0BD2148FEF76CFF2048FEF7DE
:101C100069FF1C4CA0780028F0D1A068092815DCC9
:101C20004001A16AE26A019227463037E8CF226C70
:101C30000292626C0092274A115010180199021DFD
:101C4000EAC2029981610099C16102E02048FEF771
:101C500049FF21A0FEF746FFA068401CA06003B02A
:101C6000F0BDC04653617665476573747572653A19
:101C7000204B414C4D414E2056616C7565732D2DA6
:101C80003E200000A8010020C93100086B31000887
:101C90009531000853617665476573747572653ACE
:101CA000204572726F7220736176696E6720676576
:101CB00073747572652C20747279696E6720746F05
:101CC0002072652D63616C69627261746521000028
:101CD00031310008F0010020536176654765737467
:101CE0007572653A20537563636573732100000054
:101CF000F0B587B002240694072004900120050364
:101D00000595EF4804A9FEF7D7FF002803D0EFF3AD
:101D1000108072B6FEE7EA4E3046FFF7FFF97D20ED
:101D2000C10030460191FFF769F93046FFF768F8C6
:101D3000FEF75AFC02950546E2488069E24901F047
:101D400021F80746E14901F01DF801463846FEF743
:101D500057FB03940446DB48C6692846314601F028
:101D6000AFF80146204601F053F8314601F00AF879
:101D70000546D44EF0617F20C0050090214601F059
:101D80009FF80146384601F043F8B0612846FEF757
:101D9000E7FBB062CA4C2046FFF7EEF903980690C5
:101DA000029805900820049004A92046FEF784FFBD
:101DB000002803D0EFF3108072B6FEE7C04C204637
:101DC000FFF7ACF920460199FFF718F92046FFF715
:101DD00017F8FEF709FC0446BA4988690E46BA4965
:101DE00000F0D0FF0746B94900F0CCFF0146384665
:101DF000FEF706FB0546F6692046314601F060F81D
:101E00000146284601F004F8314600F0BBFF0446C5
:101E1000AC4EF0610098294601F052F80146384670
:101E200000F0F6FFB0612046FEF79AFBF062ED4C41
:101E30002046FFF7A1F90398069002980590092023
:101E4000049004A92046FEF737FF002803D0EFF3E3
:101E5000108072B6FEE7E34C2046FFF75FF920469C
:101E60000199FFF7CBF82046FEF7CAFFFEF7BCFB4F
:101E70000446DD4988690E46DC4900F083FF0746C9
:101E8000DB4900F07FFF01463846FEF7B9FA054608
:101E9000F6692046314601F013F80146284600F065
:101EA000B7FF314600F06EFF0446CF4EF061009858
:101EB000294601F005F80146384600F0A9FFB06157
:101EC0002046FEF74DFB3063C64C2046FFF754F921
:101ED00003980690029805900A20049004A92046D1
:101EE000FEF7EAFE002803D0EFF3108072B6FEE79B
:101EF000BC4C2046FFF712F920460199FFF77EF807
:101F00002046FEF77DFFFEF76FFB0446B649886961
:101F10000E46B64900F036FF0746B54900F032FFDD
:101F200001463846FEF76CFA0546F669204631460A
:101F300000F0C6FF0146284600F06AFF314600F077
:101F400021FF0446FD4EF0610098294600F0B8FFDD
:101F50000146384600F05CFFB0612046FEF700FB0A
:101F60007063A04C2046FFF707F90398069002988B
:101F700005900B20049004A92046FEF79DFE002842
:101F800003D0EFF3108072B6FEE7964C2046FFF7C1
:101F9000C5F820460199FFF731F82046FEF730FFDB
:101FA000FEF722FB0446E54988690E468F4900F09A
:101FB000E9FE07468E4900F0E5FE01463846FEF789
:101FC0001FFA0546F6692046314600F079FF0146C2
:101FD000284600F01DFF314600F0D4FE0446D74EDF
:101FE000F0610098294600F06BFF0146384600F08A
:101FF0000FFFB0612046FEF7B3FAB063794C20467C
:10200000FFF7BAF803980690029805900C20049008
:1020100004A92046FEF750FE002803D0EFF31080FD
:1020200072B6FEE76F4C2046FFF778F8204601991C
:10203000FEF7E4FF2046FEF7E3FEFEF7D5FA04467E
:10204000BE4988690E46694900F09CFE074668490A
:1020500000F098FE01463846FEF7D2F90546F669CB
:102060002046314600F02CFF0146284600F0D0FE05
:10207000314600F087FE0446B04EF06100982946D4
:10208000029D00F01DFF0146384600F0C1FEB06120
:102090002046039CFEF764FAF063524E3046FFF789
:1020A0006BF8069405950D20049004A93046FEF7C0
:1020B00003FE00280CD0EFF3108072B6FEE7C04696
:1020C00030030020A801002017B7D1380AD7A33B5E
:1020D000444E3046FFF722F830460199FEF78EFF56
:1020E0003046FEF78DFEFEF77FFA04469349886975
:1020F0000E463E4900F046FE07463D4900F042FECE
:1021000001463846FEF77CF90546F6692046314619
:1021100000F0D6FE0146284600F07AFE314600F077
:1021200031FE0446854EF0610098294600F0C8FE55
:102130000146384600F06CFEB0612046FEF710FA0A
:102140003064284C2046FFF717F803980690029851
:1021500005900E20049004A92046FEF7ADFD00284E
:1021600003D0EFF3108072B6FEE71E4C2046FEF758
:10217000D5FF20460199FEF741FF2046FEF740FEBD
:10218000FEF732FA03906D4988690F46174900F04F
:10219000F9FD0446164900F0F5FD01462046FEF71C
:1021A0002FF90546FE690398314600F089FE014685
:1021B000284600F02DFE314600F0E4FD0646F861A9
:1021C0000098294600F07CFE0146204600F020FEE3
:1021D000B8613046FEF7C4F978640248FEF7CCFFD8
:1021E00007B0F0BD30030020A801002017B7D13898
:1021F0000AD7A33B80B5FFF7FFF880BD704700000A
:10220000F0B581B045A0FEF76DFC6020FDF7D2FF70
:1022100000285AD004464948826A49492046FEF7B8
:1022200021F82C272754211800264E70451C6019D0
:102230004249CA6A4249FEF715F840192754211845
:102240004E70451C60193D490A6B3D49FEF70AF87E
:102250004019275421184E70451C601937494A6BA4
:102260003749FDF7FFFF4019275421184E70451CD0
:10227000601932498A6B3249FDF7F4FF401927543F
:1022800021184E70451C60192C49CA6B2C49FDF76A
:10229000E9FF4019275421184E70451C6019274941
:1022A0000A6C2749FDF7DEFF4019275420184670B5
:1022B000401C22494A6C2249FDF7D4FF2046FEF714
:1022C00011FC2046FDF7A7FF05E01E48FEF70AFCBB
:1022D0001D48FEF707FC194C20462830FEF78EFB00
:1022E000A278617800280BD0002909D1002A07D1F3
:1022F00022A0FEF7F7FBE068401CE06001B0F0BDF3
:10230000002A06D1002904D010A0FEF7EBFB01B093
:10231000F0BD1948FEF7E6FB01B0F0BD54657374DB
:10232000476573747572653A204B414C4D414E20A0
:1023300056616C7565732D2D3E200000A8010020AC
:10234000C93100086B310008953100085465737479
:10235000476573747572653A204572726F722C20EE
:10236000736F6D657468696E672077656E7420772A
:10237000726F6E670000000044300008546573748B
:10238000476573747572653A20537563636573733B
:102390002C2067657374757265207761732069649A
:1023A000656E74696669656421000000F0B585B0EA
:1023B000D94D0026AE71D94C2068800608D420681B
:1023C000800605D42068800602D420688006F3D5F4
:1023D0002189CFB2D24A01232E2F08D10396049629
:1023E000304631461278002A00D034E166E1206898
:1023F000000608D42068000605D42068000602D430
:1024000020680006F3D50293A7812068800608D4CF
:102410002068800605D42068800602D420688006E3
:10242000F3D52089C3B200252E2B2A462E460395CC
:102430000495284600D1D4E02068000608D420681E
:10244000000605D42068000602D420680006F3D5F3
:10245000A3812068800608D42068800605D42068FF
:10246000800602D420688006F3D52089C6B20022F7
:102470002E2E03D1164603920492B1E02068000686
:1024800008D42068000605D42068000602D420681D
:102490000006F3D5A6812068800608D4206880064F
:1024A00005D42068800602D420688006F3D52089F0
:1024B000C0B200222E28049602D1164603928FE065
:1024C00003902068000608D42068000605D4206820
:1024D000000602D420680006F3D50398A081206886
:1024E000800608D42068800605D42068800602D4BF
:1024F00020688006F3D52689F2B200202E2A02D168
:10250000024606466CE001902068000608D4206868
:10251000000605D42068000602D420680006F3D522
:10252000A2812068800608D42068800605D420682F
:10253000800602D420688006F3D52289D0B22E28E6
:1025400001D1019A4CE001902068000608D420686F
:10255000000605D42068000602D420680006F3D5E2
:102560000198A0812068800608D42068800605D4E0
:102570002068800602D420688006F3D52089C0B286
:102580002E282DD001902068000608D4206800066F
:1025900005D42068000602D420680006F3D501980F
:1025A000A0812068800608D42068800605D42068B1
:1025B000800602D420688006F3D52089C0B22E2878
:1025C0000ED001902068000608D42068000605D4CB
:1025D0002068000602D420680006F3D50198A08187
:1025E0001846002F029B1CD0732F21D14C4C732313
:1025F0000027002822D074281DD1049D002D1FD053
:10260000612D18D1039D002D1CD0722D13D1F5B270
:10261000002D19D0742D0ED112063F4D79D03B46B6
:1026200019E029463C4D3E4A1278002A13D145E074
:102630002B46394D0FE0384D3B460CE0621C04E060
:10264000A21C02E0E21C00E0221D1946324D3B466E
:102650001278002A32D0002B1AD032480078002895
:102660002AD12879002842D0012460022F490A6823
:1026700082430A6020020A6802430A6008688022D6
:10268000904308602A482A30FEF72CFA6C7131E03A
:10269000C9B2742910D12349002832D065280BD142
:1026A000049800282FD0732806D1039800282CD036
:1026B000742801D130062AD01B4819E02879002857
:1026C00002D01C482D3013E00124600217490A682B
:1026D00002430A6020020A6882430A600868802276
:1026E000904308601248FEF7FDF92C7102E0114892
:1026F000FEF7F8F90020A8710A20FEF7A3FD05B047
:10270000F0BD481CAAE7881CA8E7C81CA6E7081D5E
:10271000A4E7621D19469AE7A80100201C48004062
:10272000BE310008C4310008E4000020140800484D
:10273000000000206000002094B0FEF767FE07ADA7
:10274000281D3021FDF757FE01270C970A9712200C
:1027500007900024109410260D960B962846FEF73D
:1027600073FF002803D0EFF3108072B6FEE70694E3
:10277000059404940720039003A82146FEF7A6FEC3
:10278000002803D0EFF3108072B6FEE77904CF4D36
:10279000286808432860B8042A6802432A60AA68A7
:1027A0000243AA60FA042B6813432B602B6813437F
:1027B0002B602B6813400793079A2A680A432A6004
:1027C0002A680A4007920799296801432960296805
:1027D00001400791079855210A03BD48143802901B
:1027E000036813430360490302688A4302600521BA
:1027F0004A05B848036813430360090502688A4321
:1028000002600321C943B44802460C3A13680B40E6
:102810001360011F0A683A430A600168B943016006
:10282000016802220A430260AC4807A90B460196E0
:1028300060C860C364C864C30298FEF713FD7902E0
:10284000A24A5068084350605068084003900398BB
:10285000A34A1068019B1843106078031368034370
:102860001360B803D3690343D36124239D48C45440
:1028700004624783FB070C3A3F39C16108211CC041
:102880000460476081600C38FEF7BEFA002803D070
:10289000EFF3108072B6FEE7934D944828626862A9
:1028A000BB2000028B4A516A814351621120800291
:1028B000516A014351628E484521C16001680C2272
:1028C0000A430260824E3168402201929143316096
:1028D000316880220292114331603168854A11408B
:1028E00031603168844A11403160016839430160C8
:1028F0002C71EC70AC60EC602F616F612C80AC705F
:102900001420FEF79FFC6869E968814200DBB4E0AF
:102910002A467D20C50010E09548FEF7E3F8FFF752
:1029200045FD714A947014801420FEF78BFC6E4AAA
:102930005069D168814200DB9FE010790028EBD01C
:10294000906800283BD01169884240DA624A50689A
:10295000384005E05168394040000818411C1CD03F
:1029600007940799A942F5DA0799491C0791079935
:10297000A942EFDA0799491C07910799A942E9DAB8
:102980000799491C07910799A942E3DA0799491C5D
:1029900007910799A942E7DBDCE77448FEF7A2F844
:1029A000FEF726FD0646FFF7A3F9FEF721FD801B83
:1029B000691E8842F7D9FFF7B9F8454EB1E74FA035
:1029C000FEF790F8484A906811698842BEDBD068EB
:1029D00000280BD15078002808D19078002805D124
:1029E0005648FEF77FF8FFF7E1FC3F4A5079002890
:1029F00098D0D068002804D15148FEF773F83A4ABD
:102A0000D068516988424CDA334A5068384005E052
:102A10005168394040000818411C1CD007940799A0
:102A2000A942F5DA0799491C07910799A942EFDAFB
:102A30000799491C07910799A942E9DA0799491CA6
:102A400007910799A942E3DA0799491C0791079969
:102A5000A942E7DBDCE74548FEF744F8FEF7C8FC8F
:102A60000646FFF745F9FEF7C3FC801B691E884246
:102A7000F7D9FFF7C5FB164E53E73EA0FEF732F835
:102A800030680199084330603068029988433060AB
:102A90003068184908403060306817490840306095
:102AA000FEE728A0FEF71EF8306801990843306061
:102AB000306802998843306030680E4908403060C1
:102AC00030680D4908403060FEE7C04614100240EF
:102AD00014080048000400480C000048D02F0008EB
:102AE0000C24014030030020A80100203030303099
:102AF00000480040FFFEFFFFFFFDFFFF43616C69E0
:102B00006272617465206D6F64652073656C6563C6
:102B10007465643A207075736820626C7565206214
:102B20007574746F6E20746F2063616C696272617A
:102B3000746520676573747572652100EF30000855
:102B4000893000084D61696E204D6574686F643A84
:102B5000204572726F72212C2072657374617274D9
:102B60002070726F6772616D000000001430000801
:102B7000CA3000084D61696E206D6574686F643AF3
:102B80002046696E697368656421210043088B42A1
:102B90001AD3002203098B4279D3030A8B425ED3F6
:102BA000030B8B4242D3030C8B4227D30902FF2233
:102BB00012BA030C8B4202D31212090203D0030B88
:102BC0008B4233D31AE0D3E0411A8041401C704756
:102BD00003460B4371D443088B42F5D3002203090B
:102BE0008B4254D3030A8B4239D3030B8B421DD340
:102BF000030C8B4202D394466EE0090AC30B8B424E
:102C000001D3CB03C01A5241830B8B4201D38B03F8
:102C1000C01A5241430B8B4201D34B03C01A52419D
:102C2000030B8B4201D30B03C01A5241C30A8B42E0
:102C300001D3CB02C01A5241830A8B4201D38B02CB
:102C4000C01A5241430A8B4201D34B02C01A52416F
:102C5000030A8B4201D30B02C01A5241CDD2C309E1
:102C60008B4201D3CB01C01A524183098B4201D35D
:102C70008B01C01A524143098B4201D34B01C01A48
:102C8000524103098B4201D30B01C01A5241C308C0
:102C90008B4201D3CB00C01A524183088B4201D32F
:102CA0008B00C01A524143088B4201D34B00C01A1B
:102CB0005241411A524110007047CA0F00D0494298
:102CC000031000D34042534000229C4603098B422C
:102CD0002DD3030A8B4212D38901FC2212BA030AB4
:102CE0008B420CD3890192118B4208D38901921136
:102CF0008B4204D3890137D0921100E08909C309BE
:102D00008B4201D3CB01C01A524183098B4201D3BC
:102D10008B01C01A524143098B4201D34B01C01AA7
:102D2000524103098B4201D30B01C01A5241C3081F
:102D30008B4201D3CB00C01A524183088B4201D38E
:102D40008B00C01A5241D9D243088B4201D34B00A9
:102D5000C01A5241411A00D2014652411046634600
:102D60005B1000D34042704763465B1000D3404283
:102D700001B50021004201D0C9430846C046C04603
:102D800002BD000070B50125ED0704004C4020D4C1
:102D9000441A01D2001B0919C60D4B00F2B2FF2ADA
:102DA00029D01B0E2CD000020C0228432C43D31A2E
:102DB000DC40051910D2280A02D3401C6D0611D040
:102DC000761EF6058019FF2A00DA70BDC00DC00519
:102DD00070BD694000F07AF801200543C541521CDE
:102DE000761CE8E764089C40C90161408900E7D18E
:102DF0000124A043E4E71B0E440200D0034870BD49
:102E0000002AFCD1C00FC00770BD00BF0000C07F0A
:102E100070B5420064414B005C41120E39D01B0E6C
:102E200038D0FF2A3CD0FF2B3AD0D2187F3A40024C
:102E30004902400A490A4518ED0106004E43000ABE
:102E4000090A48430104731A4019190C4318990FD1
:102E500004D05B08012149075B1A521CD80904D32E
:102E6000401CF50301D19D0607D0FF2A08D2D505E5
:102E700006D0E4072043401970BD0125A843F4E7BC
:102E8000002A01DCE00770BD2402FF202043C005BA
:102E900070BD1B0EFF2A03D0FF2B01D0E00770BDD1
:102EA000FF2636064500B54206D84D00B54203D888
:102EB000D218FF2A00D0E7E7004870BD0000C07FAD
:102EC00070B50125ED0704004C4022D4441A02D20B
:102ED0006C40001B0919C60D4B00F2B2FF2A4BD003
:102EE0001B0E50D000020C02A8432C43D31ADC4026
:102EF000051B05D5AD0019D36D08761E521E37D0BF
:102F0000F605280A01D2801970BD70416D0603D004
:102F100070BD6940FFF73CFF9C40090261404900D9
:102F200001D0401E70BD0124A04370BD6D081DD0AE
:102F300001202B0C01D12D0410302B0E01D12D02BC
:102F400008302B0F01D12D01001DAB0F01D1AD00B9
:102F5000801CEB0F01D16D00401C361A121A6D0057
:102F6000680AF5054019012A02DB70BD002070BD1A
:102F7000C036300AC00770BD1B0E440201D1FF2BC2
:102F800000D1024870BD002AF0D070BD0000C07FA3
:102F90008182838485868788898B8C8D8E8F9192A0
:102FA00093959697999A9C9D9FA0A2A3A5A7A8AA3E
:102FB000ACAEB0B2B3B5B7B9BCBEC0C2C5C7C9CC60
:102FC000CED1D4D7D9DCDFE2E6E9ECF0F3F7FAFEB4
:102FD00010000000030000000000000000000000DE
:102FE00000000000000000000000000001020304D7
:102FF0000607080902030405060708090A0B0C0D59
:103000000E0F10100102030405060708090A0B0C35
:103010000D0E0F10426567696E47657374757265B2
:103020003A20427574746F6E2070726573736564B4
:1030300020746F2073746172742067657374757285
:103040006521200054657374476573747572653A21
:1030500020556E6964656E7469666965642F666C77
:1030600061672C2067657374757265206E6F7420BC
:10307000636C6F736520746F206F6E652063616C85
:1030800069627261746564210054657374206D6FA8
:1030900064652073656C65637465643A207075734C
:1030A0006820626C756520627574746F6E20776835
:1030B000656E20726561647920746F207465737425
:1030C00020676573747572652100456E74657220A2
:1030D0002773746172742E2720746F207374617269
:1030E000742063616C6962726174696E672100416A
:1030F0006C6C2067657374757265732063616C69AD
:103100006272617465642C20656E74657220277428
:103110006573742E2720746F207374617274207429
:10312000657374696E672067657374757265732162
:103130000053746F72652032442041727261793A93
:103140002032442061727261792069732066756C47
:103150006C2E2043616E6E6F742073746F726520E5
:103160006D6F726520646174612E004172726179C5
:1031700020546F20537472696E673A206D656D6FCD
:10318000727920616C6C6F636174696F6E20666127
:10319000696C6564005072696E74696E6720617253
:1031A0007261793A206D656D6F727920616C6C6F18
:1031B000636174696F6E206661696C656400737425
:1031C000617274007465737400256C7500000000F2
:1031D000F03100080000002048010000E408000869
:1031E000D032000848010020380800002001000803
:1031F0000212200100161D7475726E6564206F6ED8
:1032000020677265656E204C45442E002A40076F8A
:1032100072616E67652B1101120104120404101E05
:103220002063616E7420277465737427206265665D
:103230006F726520796F7520277374617213600D4A
:1032400063616C6962726174696F6E2E2D61141016
:1032500023652720747769636520696E2061207279
:103260006F772120707573682072657365742062B2
:10327000757474783004746F204B2006206F766567
:10328000720E73726540218A100D127A00206D75DE
:10329000737420656E74214178122E5A726F7C13FC
:1032A000652CBE61A411421369642C10066966790D
:1032B00020671240057572652E4161B351C65006F4
:1032C0007573696E673603002E0000000000000071
:04000005080000C12E
:00000001FF
